:02000002B0004C
:1040000000400B00DA520B00000006000C00050215
:084010000401B61400000000D9
:04401800F44F0B0056
:10401C00034613F8012B002AFBD1181A01387047FC
:10402C0009480A49884208B505D0094A824202D09B
:10403C00121A00F02FFF0748074A0021121A00F04D
:10404C0037FF014808BD00BF28E6032034520B009F
:10405C00A0E60320A0E60320F0E7032070B5074E8E
:10406C00074C00F0E3FDA41BA4080025AC4200D1D2
:10407C0070BD56F8043B98470135F7E7EC510B003F
:10408C0010520B0000F014B808B500F023F8BDE88E
:10409C00084000F083BD00F0F7B900F0FDB90078DE
:1040AC00B0FA80F04009704701230370704700009C
:1040BC0008B5064B0121188800F028FE044B00219E
:1040CC001888BDE8084000F021BE00BF30E6032090
:1040DC0028E6032070B5124E00F052F83368C01A6F
:1040EC00104B1B68984219D90F4B104D188800F0D3
:1040FC0037FE2B78C4B2A34210D000F041F82C70DC
:10410C0030605CB90A4B1978013918BF012119705C
:10411C00084BBDE87040188800F009BE70BD00BFA8
:10412C00B0E603202CE6032028E60320ACE60320AF
:10413C00B4E6032030E6032010B5074B074A9A601B
:10414C000024C3E90044032000F012F921460120A9
:10415C00BDE8104000F014B9A0E603200000FFFFFA
:10416C0008B5024B1B685B6C019308BD4802030049
:10417C0008B5024B1B685B68019308BD180203006D
:10418C0008B5024B1B685B69019308BD180203005C
:10419C0008B5024B1B689B68019308BD2C020300F9
:1041AC0008B5024B1B68DB68019308BD2C020300A9
:1041BC0008B5024B1B681B69019308BD2C02030058
:1041CC0008B5024B1B685B69019308BD2C02030008
:1041DC0008B5024B1B681B6A019308BD280203003B
:1041EC0008B5024B1B685B6A019308BD28020300EB
:1041FC0008B5024B1B689B6A019308BD280203009B
:10420C0008B5024B1B68DB6A019308BD280203004A
:10421C0008B5024B1B681B6B019308BD28020300F9
:10422C0008B5024B1B685B6B019308BD28020300A9
:10423C0008B5024B1B681B6C019308BD28020300D8
:10424C0008B5024B1B685B69019308BD640203004F
:10425C0008B5024B1B689B68019308BD68020300FC
:10426C0008B5024B1B68DB68019308BD68020300AC
:10427C0008B5024B1B68DB69019308BD30020300D3
:10428C0008B5024B1B681B6A019308BD3002030082
:10429C0008B5024B1B68DB68019308BD3C020300A8
:1042AC0008B5024B1B681B69019308BD3C02030057
:1042BC0008B5024B1B685B69019308BD3C02030007
:1042CC0008B5024B1B689B69019308BD3C020300B7
:1042DC0008B5024B1B68DB69019308BD3C02030067
:1042EC0008B5024B1B681B6A019308BD3C02030016
:1042FC0008B5024B1B689B6A019308BD3C02030086
:10430C0008B5024B1B681B6C019308BD3C020300F3
:10431C0008B5024B1B681B68019308BD4C020300D7
:10432C0008B5024B1B681B69019308BD4C020300C6
:10433C0008B5024B1B685B69019308BD4C02030076
:10434C0008B5024B1B689B69019308BD4C02030026
:10435C0008B5024B1B68DB69019308BD4C020300D6
:10436C0008B5024B1B681B6A019308BD4C02030085
:10437C0008B5024B1B685B68019308BD2002030063
:10438C0008B5024B1B68DB6A019308BD20020300D1
:10439C0008B5034B1B68D3F88830019308BD0000A7
:1043AC002002030008B5034B1B68D3F8943001932B
:1043BC0008BD00002002030008B5024B1B68DB6B34
:1043CC00019308BD4402030008B5024B1B685B68EF
:1043DC00019308BD4002030008B5024B1B689B68A3
:1043EC00019308BD4002030008B5024B1B68DB6853
:1043FC00019308BD4002030008B5024B1B681B6902
:10440C00019308BD4002030008B5024B1B685B69B1
:10441C00019308BD4002030008B5024B1B689B6961
:10442C00019308BD4002030008B5024B1B68DB6911
:10443C00019308BD4002030008B5024B1B681B6AC0
:10444C00019308BD4002030008B5024B1B681B6BAF
:10445C00019308BD4002030008B5024B1B685B6B5F
:10446C00019308BD4002030008B5024B1B681B6C8E
:10447C00019308BD4002030008B5024B1B685B6C3E
:10448C00019308BD4002030008B5024B1B681B6872
:10449C00019308BD1C02030008B5024B1B685B6846
:1044AC00019308BD1C02030008B5024B1B681B6C72
:1044BC00019308BD1C02030008B5024B1B685B6C22
:1044CC00019308BD1C020300024800230360FFF7A0
:1044DC0047BE00BFB8E60320002240681146FFF734
:1044EC00ABBF002240681146FFF7B6BF4068002200
:1044FC00FFF7AABF4068002281F00101FFF794BFCB
:10450C00002340681A461946FFF786BF002340680F
:10451C001A461946FFF778BF002240681146FFF78C
:10452C006BBF002240681146FFF756BF406800225F
:10453C000221FFF759BF002340681A46FFF744BF1A
:10454C00024B03225A60024A1A607047BCE60320F1
:10455C0010500B007047F8B5064615460C468F18E0
:10456C00BC4206D0336814F8011B9B683046984750
:10457C00F6E72846F8BD007C0022FFF729BE007C38
:10458C000021FFF72DBE007C0021FFF731BE007C1F
:10459C000021FFF735BE007C0021FFF739BE10B5B6
:1045AC0014210446FFF779FD204610BD38B50446AA
:1045BC0015464FF47A730022C4E90123094B217488
:1045CC00084623602946FFF733FEBF3008D16B69DC
:1045DC00DB0705D56868FFF75FFFE868FFF75CFF4E
:1045EC00204638BD4C500B00704710B518210446BE
:1045FC00FFF753FD204610BDF0B5037D062B8DB0A3
:10460C000E4600F104074FF0000412D000F108052B
:10461C0015F8011D0A22304600F043F9AF4204445C
:10462C0019D0002CF4D02E21304600F037F9044478
:10463C00EEE72F236A4639460A208DF80040FFF733
:10464C00FFFD6846FFF7E4FC33680246DB68694609
:10465C0030469847044620460DB0F0BD10B5054BCA
:10466C000446112240F8043B002100F021FC2046B6
:10467C0010BD00BF74500B000346074A10B543F839
:10468C00042B01F1100251F8044B43F8044B9142F6
:10469C00F9D10A781A7010BD74500B0010B59DF842
:1046AC00084044EA032343EA024242EA016104233C
:1046BC004160037510BD000007B5064B0360CB7855
:1046CC0000938B784A780978FFF7E8FF03B05DF820
:1046DC0004FB00BF74500B00014B024A1A60704778
:1046EC00C4E6032080500B00002340681A46FFF7F5
:1046FC006BBE406800220221FFF776BE00224068A4
:10470C001146FFF769BE002240681146FFF774BEE0
:10471C00002340681A461946FFF776BE002340680E
:10472C001A461946FFF778BE40680021FFF79CBE79
:10473C0040680021FFF7A0BE4068002281F0010113
:10474C00FFF772BE40680022FFF77EBE0022406871
:10475C001146FFF781BE002240681146FFF76CBE80
:10476C002DE9F04395B014460D460746FFF776FF4A
:10477C0000211C220DA8009100F09AFB40230C9301
:10478C0020466B460CAA0021FFF76AFD0446002860
:10479C004BD1024601216868FFF72EFE02218046AC
:1047AC0022466868FFF728FE009E81462146002EAF
:1047BC003BD0002939D17368022B03D00A2B11D0BE
:1047CC00F669F4E7B8F1000FFAD0716906A8043164
:1047DC0007ADFFF771FF0FCD3C1D0FC42B68237085
:1047EC004146EDE7B9F1000FEAD07469102201A837
:1047FC0000F05EFB06238DF8143001AD04F10803C4
:10480C001834186859682A4603C20833A34215465F
:10481C00F7D101A906A807ADFFF72EFF0FCD3C1D60
:10482C000FC42B6823704946CAE70098FFF710FDA8
:10483C00384615B0BDE8F083024B034A1A600022DB
:10484C005A607047C8E603208C500B00F8B506463A
:10485C000D468F180024BD420CD0336815F8011B8F
:10486C009B6830469847031E01DB1C44F3E7002C81
:10487C0008BF1C462046F8BD13B50446084659B17E
:10488C000191FFF7C5FB23680199DB6802462046BE
:10489C0002B0BDE81040184702B010BD03689B6819
:1048AC00184730B58BB00023012A8DF8243098BFFF
:1048BC000A2209AC0D46B1FBF2F101FB125303F0D5
:1048CC00FF03092B94BF30333733DBB2AA4204F811
:1048DC00013DEFD92146FFF7CFFF0BB030BD0000F3
:1048EC00014B00229A607047D0E6032010B50446B5
:1048FC0008462170FFF7BCFC00236360204610BD06
:10490C00054B02221A60054B054A9A600020C3E948
:10491C000000FFF72DBD00BFECE60320E0E603200E
:10492C000000FFFF024B1A68024B1A60704700BF71
:10493C0034E60320F0E6032070474174704708B555
:10494C00007CFFF7D5FC20EAE07008BD08B5007CC0
:10495C00FFF7A6FC20EAE07008BD08B5007CFFF765
:10496C00AFFC40EAE07008BD08B5007CFFF7A0FC86
:10497C0040EAE07008BD007CFFF7AABC37B5457C67
:10498C0004462DB1207C03B0BDE83040FFF780BC5D
:10499C00007C0191FFF7ACFC00280199F2DC284661
:1049AC0003B030BD10B514210446FFF776FB20464A
:1049BC0010BD000010B54FF47A730446084611463A
:1049CC000022C4E90123044B236001232074637487
:1049DC00FFF796FC204610BDE4500B004174704765
:1049EC007047704708B50021007CFFF7A9FC40EA2E
:1049FC00E07008BD08B50121007CFFF7A1FC40EA7E
:104A0C00E07008BD08B5007CFFF792FC20EAE0706E
:104A1C0008BD08B5007CFFF783FC20EAE07008BDF8
:104A2C0013B50446007C0191FFF782FC0028019924
:104A3C0001DC607C20B1207CFFF78AFC20EAE0706E
:104A4C0002B010BD007CFFF78BBC10B514210446DE
:104A5C00FFF723FB204610BD10B54FF47A730446C4
:104A6C0008460021C4E90113044B23600123207480
:104A7C0063741146FFF74CFC204610BD14510B001B
:104A8C0010B514220446002100F012FA204610BD85
:104A9C0010B50F4C88B003A8FFF7F2FF2178BFF3D5
:104AAC005B8F11F001010FD120460191FFF7F7FA4E
:104ABC00019948B103AA0748FFF7CEFF2046FFF73C
:104ACC00F3FA054800F0E0F9024808B010BD00BF49
:104ADC00F4E60320F8E60320ED490B0000224068C1
:104AEC001146FFF789BC002240681146FFF7A4BCB1
:104AFC00002240681146FFF7AFBC40680022FFF768
:104B0C00A3BC4068002281F00101FFF78DBC00239B
:104B1C0040681A461946FFF77FBC002340681A46C6
:104B2C001946FFF771BC002240681146FFF754BCD0
:104B3C00406800220221FFF757BC002340681A4648
:104B4C00FFF742BC024B04225A60024A1A607047BB
:104B5C000CE7032044510B00014B1860704700BF59
:104B6C0038E6032008B50B4B43B1FFF791FF036800
:104B7C001B699847002801DDAFF30080064B43B159
:104B8C0000F05CF903681B699847002801DDAFF35E
:104B9C00008008BD000000000000000008B5FFF711
:104BAC00E1FFFFF7EDFA014B186008BD28E7032081
:104BBC000548064A064908B5121A00F06BF9054B70
:104BCC00054A1A6008BD00BF00F4032004F403205A
:104BDC00AC520B0000F403201E1C279A07B50023CF
:104BEC0000931A466FF07701FFF7DCFB03B05DF81A
:104BFC0004FB000007B543880A2B08D0502B0BD1BF
:104C0C00094B1B684BB103B05DF804EB1847FFF779
:104C1C00E5FF03B05DF804FB002300931A466FF028
:104C2C007701FFF7BFFBF4E718E7032010B5124834
:104C3C000021FFF741FC114B1A68114B9A42114BA2
:104C4C000CBF012200221A7001D0FFF7B1FFFFF751
:104C5C008FFA044600F034F90B4B13B12046AFF336
:104C6C00008000210848FFF7A7FBBDE8104007486B
:104C7C000021FFF78DBB00BF654B0B0000F4032038
:104C8C001E1C279A14E7032000000000014C0B00A7
:104C9C00232813B502D9002002B010BDA0F10B03DC
:104CAC00022B1AD8174C2178BFF35B8F11F001013E
:104CBC000BD120460191FFF7F2F9019928B1124866
:104CCC00FFF714FE2046FFF7EFF90F4B1878FFF7AC
:104CDC00D7FA0028DFD10120DEE7012809D800F03F
:104CEC006DF80021007CFFF79BFA80F00100C0B248
:104CFC00D2E709380128EED800F0A0F8007CFFF7C5
:104D0C00EFFAF2E71CE7032020E70320232838B54D
:104D1C0004460D460AD8FF2908D0FFF7B9FF28B181
:104D2C0029462046BDE83840FFF732BA38BD38B5C1
:104D3C0004460D46FFF734FAFF2810D0062804D895
:104D4C004D2323FA00F0C30709D42046FFF7A0FF38
:104D5C0028B129462046BDE83840FFF729BA38BDAE
:104D6C0010B50446FFF71CFA031FDBB2012B08D960
:104D7C002046FFF78DFF20B12046BDE81040FFF71D
:104D8C001FBA002010BD704738B50A4B03600123D1
:104D9C00044643610849202000F074F82025606027
:104DAC000549A560284600F06DF8C4E903052046C6
:104DBC0038BD00BF1800010078510B0030B50E4D06
:104DCC002978BFF35B8F11F0010487B011D128460D
:104DDC00FFF765F968B16846FFF7D6FF6A462146CA
:104DEC000648FFF7E3FB2846FFF75EF9044800F09E
:104DFC004BF8024807B030BD2CE7032030E7032006
:104E0C00934D0B007047000038B5044614252A4614
:104E1C00002100F04DF825804025074925812846C2
:104E2C00258200F02FF804496060284600F02AF82B
:104E3C00E060204638BD00BF78510B0030B50E4DF8
:104E4C002978BFF35B8F11F0010487B011D128468C
:104E5C00FFF725F968B101A8FFF7D6FF01AA214693
:104E6C000648FFF7A7FD2846FFF71EF9044800F097
:104E7C000BF8024807B030BD44E7032048E7032095
:104E8C00114E0B00FFF707B9002301461A461846CE
:104E9C0000F044B80A44914200F1FF3300D170474E
:104EAC0010B511F8014B03F8014F9142F9D110BD27
:104EBC0002440346934200D1704703F8011BF9E703
:104ECC0038B5104B1D68AB6B0446B3B91820FFF70F
:104EDC00DBFA0246A86320B90B4B0C484221FFF7C2
:104EEC00E3FA0B490B4BC0E900130B4B83600B230C
:104EFC00838100210120C2E90401AB6B00221C61FB
:104F0C005A6138BD38E6032079510B0090510B00E3
:104F1C000E33CDAB34126DE6ECDE05002DE9F84313
:104F2C00DFF8B8800646D8F800001F460D469146BB
:104F3C0000F056F8254B1C6834B9254C1C60254BE9
:104F4C0013B11B68C4F8883063681F2B07DDD8F8D1
:104F5C00000000F047F84FF0FF30BDE8F8834EB387
:104F6C00D4F8880088B91C4B23B9D8F8000000F09D
:104F7C0038F8F0E74FF48470FFF786FA0028F4D085
:104F8C000023C0E94033C4F88800636840F82390DC
:104F9C0001229A4000EB8301D0F800311343C0F892
:104FAC000031022EC1F8807002BFD0F804311343D7
:104FBC00C0F804316368D8F800005A1C02336260F0
:104FCC0044F8235000F00EF80020C6E7E8E7032071
:104FDC005CE703200000000095440B009CE60320D6
:104FEC0070477047704700002D400B0069400B0064
:104FFC0091400B0095400B000000000000000000E9
:10500C000000000043450B0039450B002F450B00F9
:10501C0025450B0019450B000D450B0035470B00C2
:10502C003D470B0001450B00F9440B00EF440B000E
:10503C00E5440B006D470B00000000000000000071
:10504C0061450B00AB450B0083450B0063450B0022
:10505C008B450B0093450B009B450B00A3450B00A8
:10506C00000000000000000005460B00F5450B0099
:10507C00F7450B006170700000000000000000009C
:10508C00F5460B00FF460B0009470B0013470B00BE
:10509C001D470B0029470B0035470B003D470B0004
:1050AC0045470B0051470B0059470B0063470B005A
:1050BC006D470B0025592D256D2D25645425483A37
:1050CC00254D3A2553257A0061736374696D65002B
:1050DC00000000000000000045490B00B1490B0026
:1050EC0089490B0059480B0059490B0075490B00B5
:1050FC0067490B0083490B0047490B004B490B00D8
:10510C000000000000000000EF490B00574A0B00A4
:10511C002D4A0B0059480B001F4A0B00F1490B009C
:10512C00014A0B00514A0B00114A0B00E9490B00D4
:10513C000000000000000000474B0B003D4B0B0033
:10514C00334B0B00E94A0B00274B0B001B4B0B009E
:10515C0035470B003D470B000F4B0B00074B0B006B
:10516C00FD4A0B00F34A0B006D470B0000524545FE
:10517C004E54206D616C6C6F632073756363656551
:10518C00646564002F746D702F6A656E6B696E7345
:10519C002D4743432D31302D706970656C696E65F8
:1051AC002D34385F32303230313132345F31363079
:1051BC00363138303633392F7372632F6E65776C16
:1051CC0069622F6E65776C69622F6C6962632F73ED
:1051DC0074646C69622F72616E642E63000000004F
:1051EC0045410B00D5440B004D450B00E5460B002B
:1051FC0045480B00ED480B000D490B0031490B00E5
:04520C00514B0B00F7
:10521000040000001400000003000000474E550089
:10522000DF4DB925678DAC00965FD3434575BBBA9A
:045230002138A76614
:10523400070000003200000005000000D4500B00FD
:105244003CE6032000000000000000000000000015
:10525400000000000000000000000000000000004A
:10526400000000000000000000000000000000003A
:10527400000000000000000000000000000000002A
:10528400000000000000000000000000000000001A
:10529400000000000000000000000000000000000A
:0852A40000000000ECE703200C
:0452AC0000000000FE
:1052B60000000102030405060708090A0B0C0D0E7F
:1052C6000F101112131415161718191A1B1C1D1E70
:0452D6001F2028006D
:0452DA0078563412BC
:04000003B000401CED
:00000001FF
